S00E000041544D5F33322E7372656370
S11300006AC0000084C0000082C0000080C00000FC
S11300107EC000007CC000007AC0000078C00000F0
S113002076C0000074C0000072C0000070C0000000
S11300306EC000006CC000006AC0000068C0000010
S113004066C0000064C0000062C0000060C0000020
S11300505EC0000007634236B79BD8A71A396856BA
S113006018AEBAAB558C1D3CB7CC5763BD6DEDFDD6
S1130070753EF6177231BF000000803F0800000093
S1130080BE922449123EABAAAA2ABECDCCCC4C3E89
S113009000000080BEABAAAAAA3E00000000BF0078
S11300A00000803F0000000000084178D3BB438774
S11300B0D1133D190E3CC3BD4282AD2B3E68EC8288
S11300C076BED98FE1A93E4C80EFFFBE01C4FF7F0D
S11300D03F000000000011241FBECFE5D8E0DEBFC2
S11300E0CDBF11E0A0E6B0E0EEEFF7E102C005906D
S11300F00D92AE3FB107D9F721E0AEEFB1E001C0F8
S11301001D92AF3FB207E1F73BD50C94FD0B78CFBE
S1130110CF93DF9311BA8FEF82BBE0E0F0E0C1E050
S1130120D0E081B3AE010E2E02C0440F551F0A94D5
S1130130E2F7842B81BB82B3A42FA0958A2382BBD0
S1130140849B0FC021E030E080B390E0B9016C5F84
S11301507F4F02C0959587956A95E2F780FD13C09D
S113016002C020E030E083EF9EE70197F1F700C082
S11301700000EE0FFF1FEE0FFF1FE05AFF4FE20FCC
S1130180F31F808111C02F5F3F4F24303105E1F60A
S113019081B3A823A1BB82B3482B42BB3196E43080
S11301A0F10509F0BECF80E0DF91CF91089595B3BA
S11301B09F70282F207F922B95BBA898A99A0000A6
S11301C0A99832E43A95F1F700C025B32F7030E1D5
S11301D0839FC0011124822B85BBA99A0000A99892
S11301E083EF91E00197F1F700C0000008958FEFCD
S11301F084BB87E893E10197F1F700C0000082E037
S1130200D6DF88E2D4DF8CE0D2DF86E0D0DF81E085
S1130210CEDF83EF91E00197F1F700C0000008956D
S113022095B39F70282F207F922B95BBA89AA99AEB
S11302300000A99832E43A95F1F700C025B32F7075
S113024030E1839FC0011124822B85BBA99A000051
S1130250A99883EF91E00197F1F700C00000089599
S1130260CF93DF93EC018881882329F02196D8DF8E
S113027089918111FCCFDF91CF910895CF93DF93C2
S1130280EA01811107C0603168F4862F8F7080689D
S11302908EDF08C0813031F4603120F4862F8F70F6
S11302A0806C85DFCE01DCDFDF91CF91089581E0A2
S11302B07EDF83EF91E00197F1F700C0000080E852
S11302C076CF0895CF93DF93EC01F1DF8881882303
S11302D029F02196A5DF89918111FCCF2FE38DE0D0
S11302E093E0215080409040E1F700C00000DFDF40
S11302F0DF91CF91089520E3FC0111922A95E9F74B
S1130300089528E6FC0111922A95E9F708952DE94C
S1130310FC0111922A95E9F70895CF93DF93CDB7A5
S1130320DEB7C553D1400FB6F894DEBF0FBECDBFC4
S1130330BEDFCE018A5F9E4FDEDFCE0182569F4F25
S1130340E0DFCE010196E3DFB2DFCE018A5F9E4F8C
S113035054D0882321F086E591E0B4DFE9CFCE01C3
S11303608A5F9E4F05D1882321F082E691E0AADFBF
S1130370DFCFCE0182569F4F4CD38111D9CFCE010E
S113038082569F4FABD38111D3CFCE0182569F4F5C
S1130390ACD38111CDCF80E3FE01EA5FFE4FDE01D5
S11303A0119601900D928A95E1F788E6FE01E256D6
S11303B0FF4FDE01D19601900D928A95E1F7CE01AF
S11303C001966FD1882321F081E791E07BDFB0CFE4
S11303D0CE018A5F9E4F8CD1882321F086E791E07D
S11303E071DFA6CFCE0182569F4FA5D1882309F491
S11303F09FCF8BE791E066DF9BCF8F929F92AF9266
S1130400BF92CF92DF92EF92FF920F931F93CF93FD
S1130410DF93CDB7DEB72A970FB6F894DEBF0FBED1
S1130420CDBF7C0140E851E060E080E027DF10E0D0
S1130430470124E1820E911C0F2EFAE8AF2EF1E061
S1130440BF2EF02D05E164DE882309F43DC060DE93
S1130450853411F42CDF4CC0833469F4F401202F6B
S113046011922A95E9F723DF40E851E060E080E04B
S113047005DF10E0E8CFC12ED12CF701EC0DFD1DF6
S1130480848BA40161E081E0F9DE8FEFC81AD80AF9
S1130490DF92CF92BF92AF92E1E0F0E0EC0FFD1F4C
S11304A0FF93EF93D2D6AE014F5F5F4F6DE080E0D4
S11304B0E5DE1F5F0F900F900F900F900F900F903D
S11304C0143109F0C0CF14C0143109F0BCCF10C0EE
S11304D0B601C801B1D6892BE9F0F394FEE2CF0E40
S11304E0D11C25E0F212F4CF88E02FC08AE02DC0A1
S11304F087010C5E1F4FF80101900020E9F7EA50D4
S1130500E013F4CF0F2EF6E8CF2EF0E0DF2EF02D1F
S1130510F12CDECFCCDE4DE851E060E080E0AEDED1
S11305208F2D9EE28902A00111244E585F4F60E096
S113053081E0A4DEEFE3FDE023E0E150F040204061
S1130540E1F700C00000B3DE80E02A960FB6F8940D
S1130550DEBF0FBECDBFDF91CF911F910F91FF90F2
S1130560EF90DF90CF90BF90AF909F908F900895C1
S1130570EF92FF920F931F93CF93DF938C0197DE3B
S113058087E991E06DDEC0E0780129E2E20EF11C1A
S1130590D7E0BEDD8823E1F0BBDD8534D9F08334B8
S11305A059F485DE87E991E05BDEF7012D2F119286
S11305B02A95E9F7C0E0EDCFF801EC0FF11D81A712
S11305C0A70160E081E05ADECF5FC73011F702C0B7
S11305D0C730F9F6D8019996FD0101900020E9F79A
S11305E0E650EA1304C0F80183A58F3229F089EAA2
S11305F091E068DE89E04EC0F80121A5223328F499
S1130600213341F482A5833328F08CEA91E05ADE49
S113061089E040C0F80184A590E0C097AC01440F84
S1130620551F880F991F880F991F880F991F840FD2
S1130630951F35A5830F911D8056984F873EF7E08F
S11306409F072CF48FEA91E03DDE89E023C030E07F
S113065020533109A901440F551F220F331F220FC4
S1130660331F220F331F240F351FF80142A550E01A
S113067040535109240F351F2730310544F4883E77
S113068097403CF482EB91E01DDE89E003C080E0FA
S113069001C080E0DF91CF911F910F91FF90EF9007
S11306A00895EF92FF920F931F93CF93DF93C6E8C1
S11306B0D0E00F2EF8E5EF2EFEE2FF2EF02D8C0198
S11306C00C5E1F4FBE01C801B7D5892B19F48F8961
S11306D0811106C0AE96CE15DF05A1F78CE001C0EE
S11306E080E0DF91CF911F910F91FF90EF900895DB
S11306F0EF92FF920F931F93CF93DF93C6E8D0E05E
S113070000E010E044967C01BE01C70195D5892B19
S113071021F40093FE0180E007C00F5F1F4FAE96E7
S11307200F3F110589F783E0DF91CF911F910F915E
S1130730FF90EF9008950F931F93CF93DF93CDB75E
S1130740DEB764970FB6F894DEBF0FBECDBF8C0141
S1130750E091FE012EE2E29FF0011124E059FF4FE7
S1130760DC012D913C9180819181821793072CF4B7
S113077085EB91E0A7DD84E040C099DD41EC51E0D8
S113078060E080E07BDD1A821982FE01339682E10B
S1130790DF011D928A95E9F7E091FE01BEE2EB9F2D
S11307A0F0011124E059FF4F80819181D8012D91EE
S11307B03C91821B930B918380839F938F938AE850
S11307C091E09F938F938E010F5F1F4F1F930F93A1
S11307D03CD5A80160E081E051DDBFE72AE186E075
S11307E0B15020408040E1F700C000000F900F900E
S11307F00F900F900F900F9080E064960FB6F894CE
S1130800DEBF0FBECDBFDF91CF911F910F91089531
S11308104F925F926F927F928F929F92AF92BF920C
S1130820CF92DF92EF92FF920F931F93CF93DF93B8
S11308308C015B01FC0180818D3231F40F5F1F4F0D
S113084088248A94982C0BC08B3231F40F5F1F4F8D
S113085088248394912C03C088248394912CF801D8
S1130860708080ED870D8A3018F5E8012196C12C3F
S1130870D12C760120E030E040E251E4C701B6011A
S1130880ABD26B017C01672D70E060537109072EB8
S1130890000C880B990B14D2A70196017AD16B0135
S11308A07C018E01799080ED870D8A3018F303C0A6
S11308B0C12CD12C7601FEE27F1237C098012F5F44
S11308C03F4FF801618180ED860F8A3068F5E801B9
S11308D022960F2EFDEC4F2EFCEC5F2E652CFDE3D3
S11308E07F2EF02D70E060537109072E000C880BE9
S11308F0990BE6D1A30192016FD29B01AC01C70110
S1130900B60147D16B017C012DEC3CEC4CEC5DE372
S1130910C301B20161D22B013C018E01699180EDCA
S1130920860F8A30F8F201C08901F80180818F7D39
S1130930853409F04FC081818D3229F40E5F1F4F39
S11309402FEF3FEF0BC08B3229F00F5F1F4F21E0D9
S113095030E004C00E5F1F4F21E030E0F8019081C9
S113096080ED890F8A30D0F4319640E050E0BA012E
S1130970660F771F440F551F440F551F440F551F13
S1130980460F571F892F90E0C097480F591F8F01BA
S1130990919180ED890F8A3050F302C040E050E01D
S11309A0249FB001259F700D349F700D1124072ED4
S11309B0000C880B990B84D19B01AC0160E070E0C2
S11309C080E291E46CD29B01AC01C701B60104D270
S11309D06B017C01A114B10419F0F50111830083AA
S11309E0B401990C880B990B6BD1A7019601F4D132
S11309F0DF91CF911F910F91FF90EF90DF90CF90F7
S1130A00BF90AF909F908F907F906F905F904F902A
S1130A100895CF92DF92EF92FF920F931F93CF939B
S1130A20DF93CDB7DEB764970FB6F894DEBF0FBE81
S1130A30CDBF7C013CDC46ED51E060E080E01EDC93
S1130A401A821982FE01339682E1DF011D928A9592
S1130A50E9F710E032976F0104E15ADB8823F1F0E3
S1130A6057DB8534E9F0833469F4D601E02F1D9215
S1130A70EA95E9F71CDC46ED51E060E080E0FEDB3E
S1130A8010E0EBCFA601410F511DDA018C93612FC9
S1130A9081E0F4DB1F5F1A3001F702C01A30E9F677
S1130AA060E070E0CE010196B3DED7D0F701718328
S1130AB060831616170614F480E001C084E064967F
S1130AC00FB6F894DEBF0FBECDBFDF91CF911F915B
S1130AD00F91FF90EF90DF90CF90089524EF31E0D5
S1130AE0FC013383228380E008950F931F93CF93F7
S1130AF0DF93CDB7DEB764970FB6F894DEBF0FBEB1
S1130B00CDBFFC012281338180819181281739076F
S1130B105CF58E010F5F1F4F84E1F80111928A95F5
S1130B20E9F73F932F938AE891E09F938F931F9364
S1130B300F938BD3BCDB89EE91E092DBA80165E0D7
S1130B4081E09CDBFFEB27E289E0F150204080400C
S1130B50E1F700C00000ABDB0F900F900F900F90F7
S1130B600F900F9085E001C080E064960FB6F89472
S1130B70DEBF0FBECDBFDF91CF911F910F910895BE
S1130B80B89A35DB8FEF82BBC8DB80E090E0089534
S1130B905058BB27AA270ED0E5C0D6D030F0DBD002
S1130BA020F031F49F3F11F41EF4CBC00EF4E09515
S1130BB0E7FBC1C0E92FE7D080F3BA1762077307D8
S1130BC08407950718F071F49EF5FFC00EF4E095C4
S1130BD00B2EBA2FA02D0B01B90190010C01CA01F3
S1130BE0A0011124FF27591B99F0593F50F4503E9E
S1130BF068F11A16F040A22F232F342F4427585F90
S1130C00F3CF469537952795A795F0405395C9F7A7
S1130C107EF41F16BA0B620B730B840BBAF091505F
S1130C20A1F0FF0FBB1F661F771F881FC2F70EC0FE
S1130C30BA0F621F731F841F48F4879577956795D1
S1130C40B795F7959E3F08F0B3CF9395880F08F0BA
S1130C509927EE0F97958795089504D06894B1115C
S1130C60B5C0089598D088F09F5790F0B92F992770
S1130C70B751A0F0D1F0660F771F881F991F1AF0A3
S1130C80BA95C9F712C0B13081F09FD0B1E0089590
S1130C909CC0672F782F8827B85F39F0B93FCCF311
S1130CA0869577956795B395D9F73EF49095809599
S1130CB0709561957F4F8F4F9F4F0895E89409C0B9
S1130CC097FB3EF490958095709561957F4F8F4F7B
S1130CD09F4F9923A9F0F92F96E9BB279395F69591
S1130CE0879577956795B795F111F8CFFAF4BB0F0F
S1130CF011F460FF1BC06F5F7F4F8F4F9F4F16C073
S1130D00882311F096E911C0772321F09EE8872FFC
S1130D10762F05C0662371F096E8862F70E060E0B8
S1130D202AF09A95660F771F881FDAF7880F969531
S1130D30879597F9089597F99F6780E870E060E0D8
S1130D4008959FEF80EC089500240A941616170660
S1130D5018060906089500240A94121613061406A8
S1130D6005060895092E0394000C11F4882352F00B
S1130D70BB0F40F4BF2B11F460FF04C06F5F7F4FC3
S1130D808F4F9F4F089557FD9058440F551F59F0AA
S1130D905F3F71F04795880F97FB991F61F09F3F64
S1130DA079F087950895121613061406551FF2CF8D
S1130DB04695F1DF08C0161617061806991FF1CFDD
S1130DC086957105610508940895E894BB27662704
S1130DD07727CB0197F908950BD0C4CFB5DF28F05E
S1130DE0BADF18F0952309F0A6CFABCF1124EECFCC
S1130DF0CADFA0F3959FD1F3950F50E0551F629F72
S1130E00F001729FBB27F00DB11D639FAA27F00D5F
S1130E10B11DAA1F649F6627B00DA11D661F829F86
S1130E202227B00DA11D621F739FB00DA11D621F6B
S1130E30839FA00D611D221F749F3327A00D611D88
S1130E40231F849F600D211D822F762F6A2F11246A
S1130E509F5750408AF0E1F088234AF0EE0FFF1FBD
S1130E60BB1F661F771F881F91505040A9F79E3FF4
S1130E70510570F060CFAACF5F3FECF3983EDCF3EE
S1130E80869577956795B795F795E7959F5FC1F731
S1130E90FE2B880F911D9695879597F90895FA0171
S1130EA0EE0FFF1F30962105310599F1611571058B
S1130EB061F48038BFE39B0749F168949038810559
S1130EC061F08038BFEF9B0741F0992342F5FF3F63
S1130ED0E1053105210511F1E8940894E795D9015C
S1130EE0AA2329F4AB2FBE2FF85FD0F310C0FF5F05
S1130EF070F4A695E0F7F73950F019F0FF3A38F49A
S1130F009F779F930CD00F9007FC905808953EF064
S1130F1018CF60E070E080E89FE308954FE79F7783
S1130F205F934F933F932F939ED02F913F914F9177
S1130F305F9152DF05C019F40EF0FDCE46CF01CF0C
S1130F402ADFC8F39638C0F707F80F92E8942BE32A
S1130F503AEA48EB5FE74EDF0F920F920F924DB7DC
S1130F605EB70F92C0D0E4E5F0E016D04F915F91E8
S1130F70EF91FF91E595EE1FFF1F49F0FE57E068E2
S1130F804427EE0F441FFA95E1F74195550B32D0F3
S1130F900F9007FE26C00895DF93CF931F930F93FE
S1130FA0FF92EF92DF927B018C01689405C0DA2EE8
S1130FB0EF011EDFFE01E894A5912591359145913D
S1130FC05591AEF3EF01F6DDFE019701A801DA9425
S1130FD079F7DF90EF90FF900F911F91CF91DF9100
S1130FE008959B01AC0160E070E080E89FE3AEC02F
S1130FF0A2CE14C1D0DEE8F39923D9F3940F511D86
S1131000BBF39150504094F059F0882332F0660FAE
S1131010771F881F91505040C1F79E3F510544F7F8
S1131020880F911D9695879597F908955F3FACF0C9
S1131030983E9CF0BB27869577956795B79508F4FD
S1131040B1609395C1F7BB0F58F711F460FFE8CF77
S11310506F5F7F4F8F4F9F4FE3CFB8CE0EF0DEC050
S113106070CE689468CE97DEC8F39923D1F3C6F3A3
S1131070DF93CF931F930F93FF92C92FDD2788230C
S11310802AF02197660F771F881FDAF720E030E0F7
S113109040E85FEB9FE3883920F0803E30F02196F2
S11310A08F7777DDECE7F0E003C073DDE9EAF0E089
S11310B073DF8B01BE01EC01FB2E6F57710975952F
S11310C0771F880B990BFCDD28E132E741E35FE3EE
S11310D08FDEAF2D9801AE01FF900F911F91CF913C
S11310E0DF9168DD3FCEFA01DC01AA0FBB1F9B0133
S11310F0AC01BF5728F422273327442750781FC058
S1131100B75188F4AB2F0024469537952795011CD9
S1131110A395D2F3002069F0220F331F441FB39527
S1131120DAF30DD035CD61307105A0E88A07B946F0
S113113030F49B01AC016627772788279078309696
S113114021F0208331834283538308950CD00ACE47
S113115002DE40F0F9DD30F021F45F3F19F0EBCD11
S1131160511134CEEECD0FDE98F39923C9F35523F4
S1131170B1F3951B550BBB27AA2762177307840786
S113118038F09F5F5F4F220F331F441FAA1FA9F33C
S113119033D00E2E3AF0E0E830D091505040E6952E
S11311A0001CCAF729D0FE2F27D0660F771F881F8F
S11311B0BB1F261737074807AB07B0E809F0BB0B7E
S11311C0802DBF01FF2793585F4F2AF09E3F5105A2
S11311D068F0B1CDFBCD5F3FECF3983EDCF3869530
S11311E077956795B795F7959F5FC9F7880F911D18
S11311F09695879597F90895E1E0660F771F881F04
S1131200BB1F621773078407BA0720F0621B730BB6
S1131210840BBA0BEE1F88F7E09508959F3F31F0D9
S1131220915020F4879577956795B795880F911D10
S11312309695879597F90895FB01DC018D910190AE
S113124080190110D9F3990B0895AEE0B0E0EAE2F9
S1131250F9E0AAC20D891E8986E08C831A8309836A
S11312608FEF9FE79E838D83AE01475E5F4F6F894B
S1131270788DCE01019608D0EF81F885E00FF11F3B
S113128010822E96E4E0ACC2ABE0B0E0E9E4F9E011
S11312907DC26C017B018A01FC0117821682838165
S11312A081FFBFC1CE0101963C01F6019381F70194
S11312B093FD859193FF81917F01882309F4ADC14A
S11312C0853239F493FD859193FF81917F018532B5
S11312D021F4B60190E0C0D1E8CF912C212C312C1F
S11312E0FFE1F315D8F08B3279F038F4803279F0DD
S11312F08332A1F4232D20611DC08D3261F080332F
S113130069F4232D216016C0832D8260382EE32DCD
S1131310E4603E2E2AC0F32DF8601DC037FC2DC0BA
S113132020ED280F2A3040F08E32B9F436FC75C116
S1131330232D2064322E19C036FE06C08AE0989E02
S1131340200D1124922E11C0EAE02E9E200D1124AE
S1131350222EF32DF0623F2E08C08C3621F4832D0B
S11313608068382E02C0883641F4F70193FD8591D8
S113137093FF81917F018111B3CF982F9F7D955465
S1131380933028F40C5F1F4F9FE399830DC083367D
S113139031F0833771F0833509F055C020C0F8016E
S11313A0808189830E5F1F4F88248394912C53017D
S11313B012C02801F2E04F0E511CF801A080B18048
S11313C036FE03C0692D70E002C06FEF7FEFC501E8
S11313D038D14C018201F32DFF773F2E15C028012F
S11313E022E0420E511CF801A080B18036FE03C0F9
S11313F0692D70E002C06FEF7FEFC50117D14C017A
S1131400F32DF0683F2E820133FC19C0822D90E049
S113141088169906A0F4B60180E290E01DD12A94C2
S1131420F5CFF50137FC859137FE81915F01B60157
S113143090E012D121102A9421E0821A910881149B
S1131440910479F7E1C0843611F0893639F5F80151
S113145037FE07C060817181828193810C5F1F4FC9
S113146008C060817181072E000C880B990B0E5FF8
S11314701F4FF32DFF763F2E97FF09C0909580955F
S1131480709561957F4F8F4F9F4FF0683F2E2AE0F4
S113149030E0A3011DD1882E861844C0853731F46D
S11314A0232D2F7EB22E2AE030E025C0932D997F84
S11314B0B92E8F36C1F018F4883579F0AEC0803774
S11314C019F0883721F0A9C0E92FE061BE2EB4FEDF
S11314D00DC0FB2DF460BF2E09C034FE0AC0292FB5
S11314E02660B22E06C028E030E005C020E130E0DE
S11314F002C020E132E0F801B7FE07C060817181CB
S1131500828193810C5F1F4F06C06081718180E0EE
S113151090E00E5F1F4FA301DBD0882E8618FB2DB1
S1131520FF773F2E36FE0DC0232D2E7FA22E891469
S113153058F434FE0BC032FC09C0832D8E7EA82ED5
S113154005C0B82CA32C03C0B82C01C0B92CA4FE30
S11315500FC0FE01E80DF11D8081803321F49A2D26
S1131560997EA92E09C0A2FE06C0B394B39404C008
S11315708A2D867809F0B394A3FC10C0A0FE06C09F
S1131580B21480F4280C922C9B180DC0B21458F499
S1131590B60180E290E060D0B394F8CFB21418F4AE
S11315A02B1802C0982C212CA4FE0FC0B60180E396
S11315B090E052D0A2FE16C0A1FC03C088E790E0E0
S11315C002C088E590E0B6010CC08A2D867851F0FF
S11315D0A1FE02C08BE201C080E2A7FC8DE2B6014D
S11315E090E03AD0891430F4B60180E390E034D02E
S11315F09A94F8CF8A94F301E80DF11D8081B60125
S113160090E02AD08110F6CF222009F44ECEB60104
S113161080E290E021D02A94F7CFF6018681978169
S113162002C08FEF9FEF2B96E2E1CCC0FC01059046
S1131630615070400110D8F7809590958E0F9F1FD0
S11316400895FC016150704001900110D8F7809515
S113165090958E0F9F1F08950F931F93CF93DF9341
S1131660FB01238121FD03C08FEF9FEF2CC022FFDC
S113167016C046815781248135814217530744F4AB
S1131680A081B1819D012F5F3F4F318320838C93D3
S1131690268137812F5F3F4F3783268314C08B0108
S11316A0EC01FB010084F185E02D0995892BE1F61D
S11316B0D80116968D919C911797019617969C9335
S11316C08E931697CE01DF91CF911F910F910895BC
S11316D0FA01AA27283051F1203181F1E8946F935F
S11316E06E7F6E5F7F4F8F4F9F4FAF4FB1E03ED005
S11316F0B4E03CD0670F781F891F9A1FA11D680FA3
S1131700791F8A1F911DA11D6A0F711D811D911DD5
S1131710A11D20D009F468943F912AE0269F11244A
S11317203019305D3193DEF6CF010895462F4770AE
S1131730405D4193B3E00FD0C9F7F6CF462F4F7009
S1131740405D4A3318F0495D31FD4052419302D067
S1131750A9F7EACFB4E0A69597958795779567950D
S1131760BA95C9F700976105710508959B01AC010D
S11317700A2E06945795479537952795BA95C9F734
S1131780620F731F841F951FA01D08952F923F920F
S11317904F925F926F927F928F929F92AF92BF927D
S11317A0CF92DF92EF92FF920F931F93CF93DF9329
S11317B0CDB7DEB7CA1BDB0B0FB6F894DEBF0FBE86
S11317C0CDBF09942A88398848885F846E847D84D3
S11317D08C849B84AA84B984C884DF80EE80FD80D5
S11317E00C811B81AA81B981CE0FD11D0FB6F8944B
S11117F0DEBF0FBECDBFED010895F894FFCF0C
S11317FE37383941343536423132332F433046454A
S113180EE80346616479204765726F6765000000DE
S113181E00000000000031323334353637383900D9
S113182E0000000000000000000000000001D007CE
S113183E41686D65642053616265720000000000AA
S113184E00000000303030303131313132000000D0
S113185E000000000000000000000000B80B4D6FF7
S113186E72636F73000000000000000000000000AF
S113187E0000313131313232323232000000000098
S113188E0000000000000000000100000000000045
S113189E0000000000000000000000000000000036
S11318AE0000000000000000000000000000000026
S11318BE0000000000000000000000000000000016
S11318CE0000000000000000000000000000000006
S11318DE00000000000000000000000000000000F6
S11318EE000000000000696E76616C69642050414E
S11318FE4E00696E76616C696420657870697279E0
S113190E0073655F310073655F320073655F33008A
S113191E456E7465722050414E0025640057656C07
S113192E636F6D653A2000456E746572206578703C
S113193E69727920646174610065310065320065F5
S113194E33006534004C6F772042616C616E6365C1
S113195E00596F7572204E65772042616C616E631B
S113196E652069733A00456E746572205472616E17
S113197E7320416D6F756E74004D617820547261E1
S111198E6E7320416D6F756E742069733A009C
S9030000FC
